{
  "_format": "hh-sol-artifact-1",
  "contractName": "Tracking",
  "sourceName": "contracts/Tracking.sol",
  "abi": [
    {
      "inputs": [],
      "stateMutability": "nonpayable",
      "type": "constructor"
    },
    {
      "anonymous": false,
      "inputs": [
        {
          "indexed": true,
          "internalType": "address",
          "name": "sender",
          "type": "address"
        },
        {
          "indexed": true,
          "internalType": "address",
          "name": "receiver",
          "type": "address"
        },
        {
          "indexed": false,
          "internalType": "uint256",
          "name": "pickupTime",
          "type": "uint256"
        },
        {
          "indexed": false,
          "internalType": "uint256",
          "name": "distance",
          "type": "uint256"
        },
        {
          "indexed": false,
          "internalType": "uint256",
          "name": "price",
          "type": "uint256"
        }
      ],
      "name": "ShipmentCreated",
      "type": "event"
    },
    {
      "anonymous": false,
      "inputs": [
        {
          "indexed": true,
          "internalType": "address",
          "name": "sender",
          "type": "address"
        },
        {
          "indexed": true,
          "internalType": "address",
          "name": "receiver",
          "type": "address"
        },
        {
          "indexed": false,
          "internalType": "uint256",
          "name": "deliveryTime",
          "type": "uint256"
        }
      ],
      "name": "ShipmentDelivered",
      "type": "event"
    },
    {
      "anonymous": false,
      "inputs": [
        {
          "indexed": true,
          "internalType": "address",
          "name": "sender",
          "type": "address"
        },
        {
          "indexed": true,
          "internalType": "address",
          "name": "receiver",
          "type": "address"
        },
        {
          "indexed": false,
          "internalType": "uint256",
          "name": "pickupTime",
          "type": "uint256"
        }
      ],
      "name": "ShipmentInTransit",
      "type": "event"
    },
    {
      "anonymous": false,
      "inputs": [
        {
          "indexed": true,
          "internalType": "address",
          "name": "sender",
          "type": "address"
        },
        {
          "indexed": true,
          "internalType": "address",
          "name": "receiver",
          "type": "address"
        },
        {
          "indexed": false,
          "internalType": "uint256",
          "name": "amount",
          "type": "uint256"
        }
      ],
      "name": "ShipmentPaid",
      "type": "event"
    },
    {
      "inputs": [
        {
          "internalType": "address",
          "name": "_receiver",
          "type": "address"
        },
        {
          "internalType": "uint256",
          "name": "_pickupTime",
          "type": "uint256"
        },
        {
          "internalType": "uint256",
          "name": "_distance",
          "type": "uint256"
        },
        {
          "internalType": "uint256",
          "name": "_price",
          "type": "uint256"
        }
      ],
      "name": "createShipment",
      "outputs": [],
      "stateMutability": "payable",
      "type": "function"
    },
    {
      "inputs": [
        {
          "internalType": "address",
          "name": "_sender",
          "type": "address"
        }
      ],
      "name": "getShipments",
      "outputs": [
        {
          "components": [
            {
              "internalType": "address",
              "name": "sender",
              "type": "address"
            },
            {
              "internalType": "address",
              "name": "receiver",
              "type": "address"
            },
            {
              "internalType": "uint256",
              "name": "pickupTime",
              "type": "uint256"
            },
            {
              "internalType": "uint256",
              "name": "deliveryTime",
              "type": "uint256"
            },
            {
              "internalType": "uint256",
              "name": "distance",
              "type": "uint256"
            },
            {
              "internalType": "uint256",
              "name": "price",
              "type": "uint256"
            },
            {
              "internalType": "enum Tracking.ShipmentStatus",
              "name": "status",
              "type": "uint8"
            },
            {
              "internalType": "bool",
              "name": "isPaid",
              "type": "bool"
            }
          ],
          "internalType": "struct Tracking.Shipment[]",
          "name": "",
          "type": "tuple[]"
        }
      ],
      "stateMutability": "view",
      "type": "function"
    },
    {
      "inputs": [],
      "name": "shipmentCount",
      "outputs": [
        {
          "internalType": "uint256",
          "name": "",
          "type": "uint256"
        }
      ],
      "stateMutability": "view",
      "type": "function"
    },
    {
      "inputs": [
        {
          "internalType": "address",
          "name": "",
          "type": "address"
        },
        {
          "internalType": "uint256",
          "name": "",
          "type": "uint256"
        }
      ],
      "name": "shipments",
      "outputs": [
        {
          "internalType": "address",
          "name": "sender",
          "type": "address"
        },
        {
          "internalType": "address",
          "name": "receiver",
          "type": "address"
        },
        {
          "internalType": "uint256",
          "name": "pickupTime",
          "type": "uint256"
        },
        {
          "internalType": "uint256",
          "name": "deliveryTime",
          "type": "uint256"
        },
        {
          "internalType": "uint256",
          "name": "distance",
          "type": "uint256"
        },
        {
          "internalType": "uint256",
          "name": "price",
          "type": "uint256"
        },
        {
          "internalType": "enum Tracking.ShipmentStatus",
          "name": "status",
          "type": "uint8"
        },
        {
          "internalType": "bool",
          "name": "isPaid",
          "type": "bool"
        }
      ],
      "stateMutability": "view",
      "type": "function"
    },
    {
      "inputs": [
        {
          "internalType": "uint256",
          "name": "_index",
          "type": "uint256"
        },
        {
          "internalType": "enum Tracking.ShipmentStatus",
          "name": "_status",
          "type": "uint8"
        }
      ],
      "name": "updateShipmentStatus",
      "outputs": [],
      "stateMutability": "nonpayable",
      "type": "function"
    }
  ],
  "bytecode": "0x608060405234801561001057600080fd5b506000600181905550611331806100286000396000f3fe60806040526004361061004a5760003560e01c80631bd41d891461004f5780635667e02f1461008c5780637defa920146100d0578063aace20b7146100f9578063cbc4b18114610124575b600080fd5b34801561005b57600080fd5b5061007660048036038101906100719190610cde565b610140565b6040516100839190611097565b60405180910390f35b34801561009857600080fd5b506100b360048036038101906100ae9190610d07565b610354565b6040516100c7989796959493929190611019565b60405180910390f35b3480156100dc57600080fd5b506100f760048036038101906100f29190610da6565b610413565b005b34801561010557600080fd5b5061010e610992565b60405161011b91906110f9565b60405180910390f35b61013e60048036038101906101399190610d43565b610998565b005b60606000808373ffffffffffffffffffffffffffffffffffffffff1673ffffffffffffffffffffffffffffffffffffffff168152602001908152602001600020805480602002602001604051908101604052809291908181526020016000905b828210156103495783829060005260206000209060070201604051806101000160405290816000820160009054906101000a900473ffffffffffffffffffffffffffffffffffffffff1673ffffffffffffffffffffffffffffffffffffffff1673ffffffffffffffffffffffffffffffffffffffff1681526020016001820160009054906101000a900473ffffffffffffffffffffffffffffffffffffffff1673ffffffffffffffffffffffffffffffffffffffff1673ffffffffffffffffffffffffffffffffffffffff168152602001600282015481526020016003820154815260200160048201548152602001600582015481526020016006820160009054906101000a900460ff1660028111156102e3577f4e487b7100000000000000000000000000000000000000000000000000000000600052602160045260246000fd5b600281111561031b577f4e487b7100000000000000000000000000000000000000000000000000000000600052602160045260246000fd5b81526020016006820160019054906101000a900460ff161515151581525050815260200190600101906101a0565b505050509050919050565b6000602052816000526040600020818154811061037057600080fd5b9060005260206000209060070201600091509150508060000160009054906101000a900473ffffffffffffffffffffffffffffffffffffffff16908060010160009054906101000a900473ffffffffffffffffffffffffffffffffffffffff16908060020154908060030154908060040154908060050154908060060160009054906101000a900460ff16908060060160019054906101000a900460ff16905088565b6000803373ffffffffffffffffffffffffffffffffffffffff1673ffffffffffffffffffffffffffffffffffffffff168152602001908152602001600020805490508210610496576040517f08c379a000000000000000000000000000000000000000000000000000000000815260040161048d906110d9565b60405180910390fd5b806000803373ffffffffffffffffffffffffffffffffffffffff1673ffffffffffffffffffffffffffffffffffffffff168152602001908152602001600020838154811061050d577f4e487b7100000000000000000000000000000000000000000000000000000000600052603260045260246000fd5b906000526020600020906007020160060160006101000a81548160ff02191690836002811115610566577f4e487b7100000000000000000000000000000000000000000000000000000000600052602160045260246000fd5b0217905550600160028111156105a5577f4e487b7100000000000000000000000000000000000000000000000000000000600052602160045260246000fd5b8160028111156105de577f4e487b7100000000000000000000000000000000000000000000000000000000600052602160045260246000fd5b141561077c576000803373ffffffffffffffffffffffffffffffffffffffff1673ffffffffffffffffffffffffffffffffffffffff168152602001908152602001600020828154811061065a577f4e487b7100000000000000000000000000000000000000000000000000000000600052603260045260246000fd5b906000526020600020906007020160010160009054906101000a900473ffffffffffffffffffffffffffffffffffffffff1673ffffffffffffffffffffffffffffffffffffffff163373ffffffffffffffffffffffffffffffffffffffff167faafab9f94340179ff9cefd29621e1772a4b8efab8023163838f1b0a8f6ce5df56000803373ffffffffffffffffffffffffffffffffffffffff1673ffffffffffffffffffffffffffffffffffffffff1681526020019081526020016000208581548110610750577f4e487b7100000000000000000000000000000000000000000000000000000000600052603260045260246000fd5b90600052602060002090600702016002015460405161076f91906110f9565b60405180910390a361098e565b6002808111156107b5577f4e487b7100000000000000000000000000000000000000000000000000000000600052602160045260246000fd5b8160028111156107ee577f4e487b7100000000000000000000000000000000000000000000000000000000600052602160045260246000fd5b141561098d57426000803373ffffffffffffffffffffffffffffffffffffffff1673ffffffffffffffffffffffffffffffffffffffff168152602001908152602001600020838154811061086b577f4e487b7100000000000000000000000000000000000000000000000000000000600052603260045260246000fd5b9060005260206000209060070201600301819055506000803373ffffffffffffffffffffffffffffffffffffffff1673ffffffffffffffffffffffffffffffffffffffff16815260200190815260200160002082815481106108f6577f4e487b7100000000000000000000000000000000000000000000000000000000600052603260045260246000fd5b906000526020600020906007020160010160009054906101000a900473ffffffffffffffffffffffffffffffffffffffff1673ffffffffffffffffffffffffffffffffffffffff163373ffffffffffffffffffffffffffffffffffffffff167f3746ccceb54f44c9b0ee0120e596168d07ec9f6ca303cfdd9810d3b2e2686a2e4260405161098491906110f9565b60405180910390a35b5b5050565b60015481565b8034146109da576040517f08c379a00000000000000000000000000000000000000000000000000000000081526004016109d1906110b9565b60405180910390fd5b60006040518061010001604052803373ffffffffffffffffffffffffffffffffffffffff1681526020018673ffffffffffffffffffffffffffffffffffffffff1681526020018581526020016000815260200184815260200183815260200160006002811115610a73577f4e487b7100000000000000000000000000000000000000000000000000000000600052602160045260246000fd5b81526020016001151581525090506000803373ffffffffffffffffffffffffffffffffffffffff1673ffffffffffffffffffffffffffffffffffffffff16815260200190815260200160002081908060018154018082558091505060019003906000526020600020906007020160009091909190915060008201518160000160006101000a81548173ffffffffffffffffffffffffffffffffffffffff021916908373ffffffffffffffffffffffffffffffffffffffff16021790555060208201518160010160006101000a81548173ffffffffffffffffffffffffffffffffffffffff021916908373ffffffffffffffffffffffffffffffffffffffff16021790555060408201518160020155606082015181600301556080820151816004015560a0820151816005015560c08201518160060160006101000a81548160ff02191690836002811115610bf0577f4e487b7100000000000000000000000000000000000000000000000000000000600052602160045260246000fd5b021790555060e08201518160060160016101000a81548160ff021916908315150217905550505060016000815480929190610c2a90611202565b91905055508473ffffffffffffffffffffffffffffffffffffffff163373ffffffffffffffffffffffffffffffffffffffff167f5001b34ecf2db5b7bbeddcbbe761ec9ecadcc7638018b98ce3e24995b0e946b6868686604051610c9093929190611114565b60405180910390a35050505050565b600081359050610cae816112bd565b92915050565b600081359050610cc3816112d4565b92915050565b600081359050610cd8816112e4565b92915050565b600060208284031215610cf057600080fd5b6000610cfe84828501610c9f565b91505092915050565b60008060408385031215610d1a57600080fd5b6000610d2885828601610c9f565b9250506020610d3985828601610cc9565b9150509250929050565b60008060008060808587031215610d5957600080fd5b6000610d6787828801610c9f565b9450506020610d7887828801610cc9565b9350506040610d8987828801610cc9565b9250506060610d9a87828801610cc9565b91505092959194509250565b60008060408385031215610db957600080fd5b6000610dc785828601610cc9565b9250506020610dd885828601610cb4565b9150509250929050565b6000610dee8383610f59565b6101008301905092915050565b610e0481611195565b82525050565b610e1381611195565b82525050565b6000610e248261115b565b610e2e8185611173565b9350610e398361114b565b8060005b83811015610e6a578151610e518882610de2565b9750610e5c83611166565b925050600181019050610e3d565b5085935050505092915050565b610e80816111a7565b82525050565b610e8f816111a7565b82525050565b610e9e816111f0565b82525050565b610ead816111f0565b82525050565b6000610ec0602483611184565b91507f5061796d656e7420616d6f756e74206d757374206d617463682074686520707260008301527f6963652e000000000000000000000000000000000000000000000000000000006020830152604082019050919050565b6000610f26601783611184565b91507f496e76616c696420736869706d656e7420696e6465782e0000000000000000006000830152602082019050919050565b61010082016000820151610f706000850182610dfb565b506020820151610f836020850182610dfb565b506040820151610f966040850182610ffb565b506060820151610fa96060850182610ffb565b506080820151610fbc6080850182610ffb565b5060a0820151610fcf60a0850182610ffb565b5060c0820151610fe260c0850182610e95565b5060e0820151610ff560e0850182610e77565b50505050565b611004816111e6565b82525050565b611013816111e6565b82525050565b60006101008201905061102f600083018b610e0a565b61103c602083018a610e0a565b611049604083018961100a565b611056606083018861100a565b611063608083018761100a565b61107060a083018661100a565b61107d60c0830185610ea4565b61108a60e0830184610e86565b9998505050505050505050565b600060208201905081810360008301526110b18184610e19565b905092915050565b600060208201905081810360008301526110d281610eb3565b9050919050565b600060208201905081810360008301526110f281610f19565b9050919050565b600060208201905061110e600083018461100a565b92915050565b6000606082019050611129600083018661100a565b611136602083018561100a565b611143604083018461100a565b949350505050565b6000819050602082019050919050565b600081519050919050565b6000602082019050919050565b600082825260208201905092915050565b600082825260208201905092915050565b60006111a0826111c6565b9050919050565b60008115159050919050565b60008190506111c1826112a9565b919050565b600073ffffffffffffffffffffffffffffffffffffffff82169050919050565b6000819050919050565b60006111fb826111b3565b9050919050565b600061120d826111e6565b91507fffffffffffffffffffffffffffffffffffffffffffffffffffffffffffffffff8214156112405761123f61124b565b5b600182019050919050565b7f4e487b7100000000000000000000000000000000000000000000000000000000600052601160045260246000fd5b7f4e487b7100000000000000000000000000000000000000000000000000000000600052602160045260246000fd5b600381106112ba576112b961127a565b5b50565b6112c681611195565b81146112d157600080fd5b50565b600381106112e157600080fd5b50565b6112ed816111e6565b81146112f857600080fd5b5056fea26469706673582212209a5b9f44186f0db0d19f99f17b3f91153d39a776892a54279f2fd1683800a32664736f6c63430008000033",
  "linkReferences": {},
  "deployedLinkReferences": {}
}